:100000003741000013010100EF00000873001000E9
:100010001375F50FB70700102380A7006780000055
:1000200013078000B70700102380E70067800000F7
:10003000130101FE232C8100232A9100232E11009D
:1000400013040000B7040010634CB4008320C10106
:100050000324810183244101130101026780000010
:10006000834705002326B1002324A1002380F40048
:10007000EFF01FFB03258100130414008325C1004A
:10008000130545006FF05FFC130101FC930710049A
:100090002324F100930720042326F1009307300462
:1000A0002328F10093074004232AF100930750040A
:1000B000232CF10093076004232EF10093077004B2
:1000C0002320F102930780042322F1029307900476
:1000D0002324F102130581009307A0049305A000D7
:1000E000232E11022326F102EFF09FF49307B004B0
:1000F0002324F1009307C0042326F1009307D004C2
:100100002328F100130581009307E0049305A00064
:10011000232AF100EFF0DFF18320C1031301010472
:10012000678000004743433A2028474E5529203630
:080130002E312E30000000000A
:00000001FF
